{
  "_format": "hh-sol-artifact-1",
  "contractName": "PasswordManager",
  "sourceName": "contracts/PasswordManager.sol",
  "abi": [
    {
      "inputs": [
        {
          "internalType": "string",
          "name": "_website",
          "type": "string"
        }
      ],
      "name": "getCredentials",
      "outputs": [
        {
          "internalType": "string",
          "name": "",
          "type": "string"
        }
      ],
      "stateMutability": "view",
      "type": "function"
    },
    {
      "inputs": [
        {
          "internalType": "string",
          "name": "_website",
          "type": "string"
        },
        {
          "internalType": "string",
          "name": "_username",
          "type": "string"
        },
        {
          "internalType": "string",
          "name": "_password",
          "type": "string"
        }
      ],
      "name": "saveCredentials",
      "outputs": [],
      "stateMutability": "nonpayable",
      "type": "function"
    },
    {
      "inputs": [
        {
          "internalType": "string",
          "name": "_website",
          "type": "string"
        },
        {
          "internalType": "string",
          "name": "_newPassword",
          "type": "string"
        }
      ],
      "name": "updatePassword",
      "outputs": [],
      "stateMutability": "nonpayable",
      "type": "function"
    }
  ],
  "bytecode": "0x608060405234801561001057600080fd5b50610b95806100206000396000f3fe608060405234801561001057600080fd5b50600436106100415760003560e01c806348c248ca14610046578063cdfbb35114610062578063f6b1a22b1461007e575b600080fd5b610060600480360381019061005b9190610727565b6100ae565b005b61007c600480360381019061007791906106bb565b610146565b005b6100986004803603810190610093919061067a565b6102a0565b6040516100a59190610992565b60405180910390f35b6040518060600160405280848152602001838152602001828152506000846040516100d99190610934565b908152602001604051809103902060008201518160000190805190602001906101039291906104e2565b5060208201518160010190805190602001906101209291906104e2565b50604082015181600201908051906020019061013d9291906104e2565b50905050505050565b60008151141561018b576040517f08c379a0000000000000000000000000000000000000000000000000000000008152600401610182906109d4565b60405180910390fd5b6000808360405161019c9190610934565b9081526020016040518091039020905060008160000180546101bd90610abe565b90501415610200576040517f08c379a00000000000000000000000000000000000000000000000000000000081526004016101f7906109b4565b60405180910390fd5b818160020190805190602001906102189291906104e2565b508060008460405161022a9190610934565b9081526020016040518091039020600082018160000190805461024c90610abe565b610257929190610568565b50600182018160010190805461026c90610abe565b610277929190610568565b50600282018160020190805461028c90610abe565b610297929190610568565b50905050505050565b6060600080836040516102b39190610934565b90815260200160405180910390206040518060600160405290816000820180546102dc90610abe565b80601f016020809104026020016040519081016040528092919081815260200182805461030890610abe565b80156103555780601f1061032a57610100808354040283529160200191610355565b820191906000526020600020905b81548152906001019060200180831161033857829003601f168201915b5050505050815260200160018201805461036e90610abe565b80601f016020809104026020016040519081016040528092919081815260200182805461039a90610abe565b80156103e75780601f106103bc576101008083540402835291602001916103e7565b820191906000526020600020905b8154815290600101906020018083116103ca57829003601f168201915b5050505050815260200160028201805461040090610abe565b80601f016020809104026020016040519081016040528092919081815260200182805461042c90610abe565b80156104795780601f1061044e57610100808354040283529160200191610479565b820191906000526020600020905b81548152906001019060200180831161045c57829003601f168201915b50505050508152505090506000816000015151146104c9578060000151816020015182604001516040516020016104b29392919061094b565b6040516020818303038152906040529150506104dd565b604051806020016040528060008152509150505b919050565b8280546104ee90610abe565b90600052602060002090601f0160209004810192826105105760008555610557565b82601f1061052957805160ff1916838001178555610557565b82800160010185558215610557579182015b8281111561055657825182559160200191906001019061053b565b5b50905061056491906105f5565b5090565b82805461057490610abe565b90600052602060002090601f01602090048101928261059657600085556105e4565b82601f106105a757805485556105e4565b828001600101855582156105e457600052602060002091601f016020900482015b828111156105e35782548255916001019190600101906105c8565b5b5090506105f191906105f5565b5090565b5b8082111561060e5760008160009055506001016105f6565b5090565b600061062561062084610a25565b6109f4565b90508281526020810184848401111561063d57600080fd5b610648848285610a7c565b509392505050565b600082601f83011261066157600080fd5b8135610671848260208601610612565b91505092915050565b60006020828403121561068c57600080fd5b600082013567ffffffffffffffff8111156106a657600080fd5b6106b284828501610650565b91505092915050565b600080604083850312156106ce57600080fd5b600083013567ffffffffffffffff8111156106e857600080fd5b6106f485828601610650565b925050602083013567ffffffffffffffff81111561071157600080fd5b61071d85828601610650565b9150509250929050565b60008060006060848603121561073c57600080fd5b600084013567ffffffffffffffff81111561075657600080fd5b61076286828701610650565b935050602084013567ffffffffffffffff81111561077f57600080fd5b61078b86828701610650565b925050604084013567ffffffffffffffff8111156107a857600080fd5b6107b486828701610650565b9150509250925092565b60006107c982610a55565b6107d38185610a60565b93506107e3818560208601610a8b565b6107ec81610b4e565b840191505092915050565b600061080282610a55565b61080c8185610a71565b935061081c818560208601610a8b565b80840191505092915050565b6000610835600183610a71565b91507f2c000000000000000000000000000000000000000000000000000000000000006000830152600182019050919050565b6000610875603583610a60565b91507f50617373776f72644d616e616765723a2063726564656e7469616c7320646f2060008301527f6e6f7420657869737420666f72207765627369746500000000000000000000006020830152604082019050919050565b60006108db602d83610a60565b91507f50617373776f72644d616e616765723a206e65772070617373776f726420636160008301527f6e6e6f7420626520656d707479000000000000000000000000000000000000006020830152604082019050919050565b600061094082846107f7565b915081905092915050565b600061095782866107f7565b915061096282610828565b915061096e82856107f7565b915061097982610828565b915061098582846107f7565b9150819050949350505050565b600060208201905081810360008301526109ac81846107be565b905092915050565b600060208201905081810360008301526109cd81610868565b9050919050565b600060208201905081810360008301526109ed816108ce565b9050919050565b6000604051905081810181811067ffffffffffffffff82111715610a1b57610a1a610b1f565b5b8060405250919050565b600067ffffffffffffffff821115610a4057610a3f610b1f565b5b601f19601f8301169050602081019050919050565b600081519050919050565b600082825260208201905092915050565b600081905092915050565b82818337600083830152505050565b60005b83811015610aa9578082015181840152602081019050610a8e565b83811115610ab8576000848401525b50505050565b60006002820490506001821680610ad657607f821691505b60208210811415610aea57610ae9610af0565b5b50919050565b7f4e487b7100000000000000000000000000000000000000000000000000000000600052602260045260246000fd5b7f4e487b7100000000000000000000000000000000000000000000000000000000600052604160045260246000fd5b6000601f19601f830116905091905056fea2646970667358221220709ef41fedd918b279f93239e66c9117df8341b8211ae036e8e9c23d2826190864736f6c63430008000033",
  "linkReferences": {},
  "deployedLinkReferences": {}
}